:10004F004042CC000040301E10F01010181000007D
:10005F0000003F1008010101017F010101010000B3
:10006F0000C82858080CBE2828E83E28A82C0800ED
:10007F000008097E01040405047F0405040604003A
:1000C400C2A18A907F027E001200D5D2A07F027E58
:0100D400002B
:1000D500E4FDFCC3ED9FEC9E50070DBD00010C80B7
:0F00E500F2E4FFFE0FBF00010EEF640A4E70F54C
:0100F40022E9
:10014500C2A2D2A1E4FBD2A07F02FE1200D5C2A0BA
:09015500E47003D38001C350EBF8
:01015E00227E
:0D015F00AA07120145C2A21200C4C2A022CC
:1000F5007F647E001200D5D2A4D2A37F647E001255
:1001050000D57F3E12015F7FB812015F7FC01201EB
:0B0115005F7F4012015F7F3F02015F2F
:0D016C00AA07120145D2A21200C4C2A022AF
:10008F00C2A4C2A37FB812015F7F4012015FE4F5E3
:10009F0008E50824B8FF12015FE4F9E92440FF12D4
:1000AF00015FE4FF12016C09B940F00508E508C3D0
:0400BF00940840DD84
:0100C300221A
:080003008F088D098A0A8B0B9E
:10000B00E4F9F50CE50824B829FF12015FE5092492
:10001B0040FF12015FE4F50CE975F010A47C00259C
:10002B000CFFEC35F0FEE50B2FF582E50A3EF58370
:10003B00E493FF12016C050CE50CC3941040D90935
:03004B00B902C136
:01004E00228F
:100120001200F512008FC2A4D2A37A007B4F7D305B
:10013000E4FF120003D2A4C2A37A007B6FE4FDFFA8
:0501400012000380FE27
:0300000002017981
:0C017900787FE4F6D8FD75810C020120AF
:00000001FF
