:1002CB00E4F580C2A2D2A3D2A4E58020E7FBC2A4AE
:0102DB002200
:1002DC001202CBC2A2C2A38F80D2A4000000C2A47F
:0102EC0022EF
:10025000F582E433F583AB0BAA0CA90D120223FF40
:100260001202CBD2A2C2A38F80D2A4000000C2A4EB
:01027000226B
:060309004307B80202DC0C
:06030F004307C00202DCFE
:0702ED0004FF120309AF0436
:0902F40053073F4307400202DCFE
:0603150043073E0202DC7A
:1002B100EF14600C14600E2402700EC2A0C2A122C1
:0A02C100C2A0D2A122D2A0C2A12245
:100292001202B1E4FEAF06120309E4FF1202F4E413
:0E02A200FDE4FF1202600DBD40F70EBE08E73E
:0102B000222B
:100271001202CBE4FF1202B1120315E4FF1202B124
:100281000F120315E4FF1202B1120292E4FF0203FE
:010291000F5D
:0201E800AC0366
:1001EA001202B1AF051202EFE4FEAB0BAA0CA90D85
:1001FA008E8275830012025C0EBE10EEED1202EDC5
:10020A00E4FEEE2410F582E433F583AB0BAA0CA9C5
:08021A000D12025C0EBE10EA99
:0102220022B9
:040190008D09AC0326
:100194001202B1AF091202EFE4FEAB0BAA0CA90DD7
:1001A4008E8275830012025C0EBE20EEE5091202F7
:1001B400EDE4FEEE24201202500EBE20F6E50924E2
:1001C400021202EEE4FEEE24401202500EBE20F6AD
:1001D400E50924031202EEE4FEEE24601202500E3E
:0301E400BE20F644
:0101E70022F5
:1000030000FC0404FC0000FF8848007F8884E200B1
:10001300000F04040F0004050404FF040404040097
:10002300FC0404FC00FE929292FE929292FE000067
:100033000F04040F40444444447F44444444400078
:1000430080808282828282FE82828282828080009B
:1000530000000000000000FF00000000000000009E
:100063001010D0FF5090040484E41C8404040400A2
:10007300040300FF0004020100FF0000010600006A
:10008300000080C0E0E0E0E0E6EEFEFCF8E0E0E047
:10009300E0E0F8FCFEEEE6E0E0E0E0C08000000017
:1000A30000FFFFFFFF01C1C1E1E1E1E1E101010166
:1000B3000101E1E1E1E1E1C1C101FFFFFFFE000058
:1000C30000FFFFFFFF0001010101001070607038A5
:1000D30060603000000101010100FFFFFFFF00002D
:1000E30000030F1F1F3E3E7C7C7C3C3C3C3C3C3C65
:1000F3003C3C3C3C3C7C7C7C3C3E1F1F0F03000093
:10010300120271E4FF120292E4FF12030F750BFF58
:10011300750C00750D037B207D047F011201E875CA
:100123000BFF750C00750D237B307D047F011201DD
:10013300E8750BFF750C00750D03E4FB7D047F026E
:100143001201E8750BFF750C00750D237B107D0400
:100153007F021201E8750BFF750C00750D437B20C0
:100163007D047F021201E8750BFF750C00750D63AA
:100173007B307D047F021201E8750BFF750C00755F
:0D0183000D83E4FB7D027F0112019080FEE0
:030000000202FDFC
:0C02FD00787FE4F6D8FD75810D02010346
:10022300BB010CE58229F582E5833AF583E0225090
:1002330006E92582F8E622BBFE06E92582F8E222DA
:0D024300E58229F582E5833AF583E49322F4
:00000001FF
