:06000000020BC3020CDB41
:03000B00020A13D3
:10080000020916EC5D046005E85904700302090C46
:100810001208D7580460F6EC4860F2EC7004FDFE54
:10082000FF22C860DB2481C85009C39860025006CB
:100830000209139850CAF582E9294B4A7005AB8228
:1008400002090275F0007C1A7880C3EF9BEE9AEDE6
:1008500099400DC3EF9BFFEE9AFEED99FDE842F043
:10086000DC23ACF0D0E0FFD0E0FED0E0FDAB822096
:10087000E7101BEB60BAEC2CFCEF33FFEE33FEED20
:1008800033FD0208EEE803F830E705C0F075F0002C
:10089000EF2FFFEE33FEED33FD40B830E7C280AA04
:1008A000EDD2E7CD33EC3392D524814006E4FFFE50
:1008B000FDFC22FCE4CFCECDCC24E0501174FF80AF
:1008C000EDC3CC13CCCD13CDCE13CECF13CF04704C
:1008D000F030D5DE020921E9D2E7C933E833F892D6
:1008E000D5EDD2E7CD33EC33FC5002B2D522EC305B
:1008F000E7100FBF000C0EBE00080DBD00040BEB8F
:100900006014A2D5EB13FCED92E7FD2274FFFCFD11
:10091000FEFF22E480F8A2D574FF13FC7D80E48002
:10092000EFC3E49FFFE49EFEE49DFDE49CFC22EB0C
:100930009FF5F0EA9E42F0E99D42F0EC6480C864C5
:10094000809845F02275F008758200EF2FFFEE3396
:10095000FECD33CDCC33CCC58233C5829BED9AEC32
:1009600099E58298400CF582EE9BFEED9AFDEC999C
:10097000FC0FD5F0D6E4CEFBE4CDFAE4CCF9A882A6
:1009800022B800C1B90059BA002DEC8BF084CFCE4B
:10099000CDFCE5F0CBF97818EF2FFFEE33FEED3309
:1009A000FDEC33FCEB33FB10D703994004EB99FBD0
:1009B0000FD8E5E4F9FA227818EF2FFFEE33FEEDB9
:1009C00033FDEC33FCC933C910D7059BE99A4007C6
:1009D000EC9BFCE99AF90FD8E0E4C9FAE4CCFB22DD
:1009E00075F010EF2FFFEE33FEED33FDCC33CCC8A6
:1009F00033C810D7079BEC9AE899400AED9BFDECB1
:100A00009AFCE899F80FD5F0DAE4CDFBE4CCFAE4EF
:100A1000C8F922C0E0C0F0C083C082C0D075D00049
:100A2000C000C001C002C003C004C005C006C007AA
:100A3000AF13AE12AD11AC10EC4D4E4F703D7418AB
:100A4000250FF8E6F590E50F251DCFE50E351CCFF7
:100A50002404CF3400750E00EF5403F50FAB17AA32
:100A600016A915A814AF0DAE0CAD0BAC0A120803F5
:100A70001208A08F138E128D118C10E47FFF7EFF61
:100A8000FDFCAB13AA12A911A810C312092F402014
:100A90007508FF7509FFE51394FFF513E51294FF40
:100AA000F512E5119400F511E5109400F51080128F
:100AB00085120885130975130075120075110075EC
:100AC0001000AE08AF09AB07AA06C374FF9BFF7402
:100AD000FF9AFEE49400FDE49400FCE4FB7A01F943
:100AE000F8120C4F8F8CAE08AF09AB07AA06C3747F
:100AF000FF9BFF74FF9AFEE49400FDE49400FCE485
:100B0000FB7A01F9F8120C4FAF038F8AD007D00699
:100B1000D005D004D003D002D001D000D0D0D082F4
:100B2000D083D0F0D0E032E47FFF7EFFFDFCAB133A
:100B3000AA12A911A810C312092F402074FFF508AA
:100B4000F509E51394FFF513E51294FFF512E5118D
:100B50009400F511E5109400F510800F85120885BA
:100B60001309E4F513F512F511F510758901AE08B6
:100B7000AF09AB07AA06C374FF9BFF74FF9AFEE49C
:100B80009400FDE49400FCE4FB7A01F9F8120C4FA8
:100B90008F8CAE08AF09AB07AA06C374FF9BFF7426
:100BA000FF9AFEE49400FDE49400FCE4FB7A01F972
:100BB000F8120C4FAF038F8AD2AFD2A9D2A8D28835
:100BC000D28C22787FE4F6D8FD75811D020C0A02D2
:100BD0000C93E493A3F8E493A34003F68001F20896
:100BE000DFF48029E493A3F85407240CC8C333C46A
:100BF000540F4420C8834004F456800146F6DFE4D5
:100C0000800B0102040810204080900CC6E47E0195
:100C10009360BCA3FF543F30E509541FFEE493A347
:100C200060010ECF54C025E060A840B8E493A3FA59
:100C3000E493A3F8E493A3C8C582C8CAC583CAF0E5
:100C4000A3C8C582C8CAC583CADFE9DEE780BEC2C1
:100C5000D5E830E70FB2D5E4C39BFBE49AFAE499F8
:100C6000F9E498F8EC30E717B2D5120C8512098137
:100C7000E4C39BFBE49AFAE499F9E498F880031240
:100C8000098130D50DE4C39FFFE49EFEE49DFDE4A1
:100C90009CFC22E4F50DF50C750B80750A3FAB1733
:100CA000AA16A915A814AF0DAE0CAD0BAC0A12080C
:100CB000031208A08F138E128D118C10120B27D2E5
:100CC000A085189080FE021C0001020E0001041491
:100CD0003591A2B40418FEFDFBF700C0E0C0D0C3FC
:0F0CE000E4951DF51DE4951CF51CD0D0D0E03235
:00000001FF
