:03000000020800F3
:03000B000208FCEC
:10080000787FE4F6D8FD75810C02084702088CE475
:1008100093A3F8E493A34003F68001F208DFF48089
:1008200029E493A3F85407240CC8C333C4540F44D9
:1008300020C8834004F456800146F6DFE4800B01B3
:1008400002040810204080900905E47E019360BCFA
:10085000A3FF543F30E509541FFEE493A360010E4B
:10086000CF54C025E060A840B8E493A3FAE493A372
:10087000F8E493A3C8C582C8CAC583CAF0A3C8C593
:1008800082C8CAC583CADFE9DEE780BEE4F508F5A1
:100890000975890175A882758CD8758AEFD28CE4A8
:1008A000F50B0509E5097002050890090993F50A99
:1008B0000509E5097002050893F50CE50B650C6068
:1008C000DEE50AF46015E50A600AB2A2FF7E0012B6
:1008D00008E680E7E4F508F50980C4C2A2AF0C7E03
:1008E000001208E680D57D02EF4E600FED60031D1B
:1008F00080FA7D02EF1F70F01E80ED22758CD87596
:100900008AEF050B32010B0000FF39103310301055
:100910003910391033103010391030102B102610C8
:0709200030102B102610001F
:00000001FF
