:03000000020AFEF3
:10080000EC4D6011E8497017ED33EC3304600DE4F2
:10081000FCFFFEFD22E933E8330470F8020A5012AF
:100820000A1B58046009E4CC2481500628500902B0
:100830000A5A284003020A57C0E0EB4A7044B980C4
:1008400006D0E0FB020A46EF4E701CBD8008EBFFAD
:10085000EAFEE9FD80EBE98DF0A4FEE5F00208E98F
:10086000E9CDF9EAFEEBFFEF89F0A4FCE5F0CE89D3
:10087000F0A42EFFE435F0CD89F0A42DFEE435F090
:100880008067EF4E7005BD80D780C3EF8BF0A4ACBE
:10089000F0EE8BF0A42CFCE435F0F8EF8AF0A42CF9
:1008A000E5F038FCE433CB8DF0A42CFCE5F03BF80C
:1008B000EE8AF0A42CFCE5F038F8E433CF89F0A4FC
:1008C0002CFCE5F038CF3400CE89F0A42FFFE5F002
:1008D0003EFEE433C98DF0A42EFEE5F039CD8AF05A
:1008E000A42FFFE5F03EFEE43DFD33D0E0FB5007D2
:1008F0000BBB000F020A5AEC2CFCEF33FFEE33FE69
:10090000ED33FD020A32020A5AEC5D046005E85933
:10091000047003020A50120A1B580460F6EC486087
:10092000F2EC7004FDFEFF22C860DB2481C8500990
:10093000C39860025006020A579850CAF582E92906
:100940004B4A7005AB82020A4675F0007C1A78802B
:10095000C3EF9BEE9AED99400DC3EF9BFFEE9AFE1D
:10096000ED99FDE842F0DC23ACF0D0E0FFD0E0FEF2
:10097000D0E0FDAB8220E7101BEB60BAEC2CFCEF63
:1009800033FFEE33FEED33FD020A32E803F830E7C1
:1009900005C0F075F000EF2FFFEE33FEED33FD40A4
:1009A000B830E7C280AA75F020800E75F01080057F
:1009B00075F0087D007E007F003392D530D503129C
:1009C0000A9BEC334010EF33FFEE33FEED33FDECCA
:1009D00033FCD5F0ED22E5F0247EA2D513CC92E7CE
:1009E000CDCEFF22EDD2E7CD33EC3392D52481403A
:1009F00006E4FFFEFDFC22FCE4CFCECDCC24E0508B
:100A00001174FF80EDC3CC13CCCD13CDCE13CECF5C
:100A100013CF0470F030D5DE020A9BE9D2E7C93368
:100A2000E833F892D5EDD2E7CD33EC33FC5002B287
:100A3000D522EC30E7100FBF000C0EBE00080DBD34
:100A400000040BEB6014A2D5EB13FCED92E7FD2242
:100A500074FFFCFDFEFF22E480F8A2D574FF13FCB6
:100A60007D80E480EFC2D5EC30E709B2D5E4C39DC8
:100A7000FDE49CFCEE30E715B2D5E4C39FFFE49E95
:100A8000FE120AA9C3E49DFDE49CFC8003120AA99E
:100A900030D507C3E49FFFE49EFE22C3E49FFFE43A
:100AA0009EFEE49DFDE49CFC22BC000BBE0029EFF1
:100AB0008DF084FFADF022E4CCF875F008EF2FFF45
:100AC000EE33FEEC33FCEE9DEC984005FCEE9DFE13
:100AD0000FD5F0E9E4CEFD22EDF8F5F0EE8420D25A
:100AE0001CFEADF075F008EF2FFFED33FD400798C9
:100AF0005006D5F0F222C398FD0FD5F0EA22787F98
:100B0000E4F6D8FD758119020B45020BFAE493A3B4
:100B1000F8E493A34003F68001F208DFF48029E4AF
:100B200093A3F85407240CC8C333C4540F4420C8FB
:100B3000834004F456800146F6DFE4800B01020492
:100B40000810204080900CAEE47E019360BCA3FFAF
:100B5000543F30E509541FFEE493A360010ECF54C7
:100B6000C025E060A840B8E493A3FAE493A3F8E4B6
:100B700093A3C8C582C8CAC583CAF0A3C8C582C822
:100B8000CAC583CADFE9DEE780BEE4F50DF50CF5E2
:100B90000B750A3F7F887E018E088F09AC14AD1556
:100BA000EC1209ABA804A905AA06AB07E4FFFE7D79
:100BB000707C42120909AB0DAA0CA90BA80A1208F5
:100BC000008F118E108D0F8C0EAC08AD09EC120940
:100BD000ABAB11AA10A90FA80E1208001209E48EDF
:100BE000128F13E5131513AE12700215124E600921
:100BF000AF09AE08120C7C80EA22751400751578D6
:100C0000120B8A120B8A120B8AE4F50DF50C750B88
:100C100080750A3F7FB87E01120B98E4F50DF50C44
:100C2000750B80120B91E4F50DF50C750B80750AB0
:100C30003F7F0B7E02120B98E4F50DF50CF50B755A
:100C40000A407FEE7E01020B98AD07AC06EC12095C
:100C5000ABAB19AA18A917A816120800E4FBFA7979
:100C6000207841120800A804A905AA06AB07E4FFF2
:100C7000FE7D807C3F1209091209E422120C49AB67
:100C800007AA06B2A27C007D02120A65EF1FAC061D
:100C900070011E4C70F6B2A2AE02AF037C007D0262
:100CA000120A65EF1FAC0670011E4C70F622041686
:050CB00037360B610066
:00000001FF
