:1000030000000000000000000000000000000000ED
:1000130000000000000000000000000000000000DD
:100023002020242424A4242420FF20222C20200068
:1000330040C07E40403F222220030C102040F800A5
:100043001060020CC0021EE2020202E21E00000067
:1000530004047C0380804020130C13204080800024
:10006300048484FC848400FE9292FE9292FE00003B
:100073002060201F1010404444447F444444400007
:1000830000040404040404FC040404040404000041
:10009300202020202020203F20202020202020005E
:1000A30020202020202020FF20202020202020008E
:1000B30080804020100C0300030C1020408080003F
:1000C3004030119690909196909098141350300070
:1000D300040404040444847E0605040404040400A4
:1000E300000000000000000000000000000000000D
:1000F30000000000000000000000000000000000FD
:1001030000000000000000000000000000000000EC
:1001130000000000000000000000000000000000DC
:10012300008060F8070004242425262424240400E6
:10013300010000FF000000F94949494949F900005D
:10014300000000FC54545655545454FC0000000065
:1001530040300003394141455941417300083000A3
:1001630000040404040404FC040404040404000060
:10017300202020202020203F20202020202020007D
:100183002424A4FE2322003E22222222223E000017
:10019300080601FF0106404949497F494949410091
:1001A300403011969090919690909814135030008F
:1001B300040404040444847E0605040404040400C3
:1001C30000FE225A86100C242425262424140C0015
:1001D30000FF0408078041310F01013F41417100D5
:1001E300000000000000000000000000000000000C
:1001F30000000000000000000000000000000000FC
:1002030000000000000000000000000000000000EB
:1002130000000000000000000000000000000000DB
:1002230000000000000000000000000000000000CB
:1002330000000000000000000000000000000000BB
:100243004042CC0000E2222A2AF22A2622E00000C1
:1002530080403F4080FF898989BF89A9C9BF800049
:10026300008060F8070004242425262424240400A5
:10027300010000FF000000F94949494949F900001C
:1002830000040404040404FC04040404040400003F
:10029300202020202020203F20202020202020005C
:1002A3002424A4FE2322003E22222222223E0000F6
:1002B300080601FF0106404949497F494949410070
:1002C300000000000000000000000000000000002B
:1002D300000000000000000000000000000000001B
:1002E300000000000000000000000000000000000B
:1002F30000000000000000000000000000000000FB
:1003030000000000000000000000000000000000EA
:1003130000000000000000000000000000000000DA
:1003230000000000000000000000000000000000CA
:1003330000000000000000000000000000000000BA
:1003430000000000000000000000000000000000AA
:10035300000000000000000000000000000000009A
:10036300404042CC000020180F08F808080800009D
:100373000000007F201001010101FF0101010100C4
:10038300448414640F24A42424E42F24A424040008
:10039300080978040304040504FF040504040400A5
:1003A300000000000000000000000000000000004A
:1003B300000000000000000000000000000000003A
:1003C300000000000000000000000000000000002A
:1003D300000000000000000000000000000000001A
:1003E300000000000000000000000000000000000A
:1003F30000000000000000000000000000000000FA
:0B056100C2A18A907F0112056CD2A09D
:10056C00E4FEEEC39F5011E4FDFC0DBD00010CED4B
:08057C00640A4C70F50E80EAE0
:010584002254
:1005A500C2A2D2A1E4FBD2A07F0112056CC2A01F9A
:0905B500EF7003D38001C350EB89
:0105BE00221A
:0805D90044B8FF1205E17F4068
:0D05E100AA071205A5C2A2120561C2A02240
:0D05BF00E50D29F582E4350CF583E493FF8A
:0D05CC00AA071205A5D2A2120561C2A02245
:100585007F0112056CD2A4D2A312056C7F3E120521
:10059500E17FB81205E17FC01205DC7F3F0205E16E
:10053100C2A4C2A37FB81205DCE4F50AE50A24B817
:10054100FF1205E1E4F9E92440FF1205E1E4FF129D
:0F05510005CC09B940F0050AE50AC3940840DD5E
:010560002278
:080403008F0A8D0B8A0C8B0D92
:10040B00C2A4D2A3E50A44B8FF1205E1E50B4440B0
:10041B00FF1205E1E4F91205BF09B910F9792012B1
:10042B0005BF09B930F979401205BF09B950F979FF
:10043B00601205BF09B970F9E50A0444B8FF12054B
:10044B00E1E50B4440FF1205E179101205BF09B934
:10045B0020F979301205BF09B940F979501205BF5F
:10046B0009B960F979701205BF09B980F9D2A4C234
:10047B00A3E50A1205D979801205BF09B990F9795C
:10048B00A01205BF09B9B0F979C01205BF09B9D0DF
:10049B00F979E01205BF09B9F0F9E50A041205D99B
:1004AB0079901205BF09B9A0F979B01205BF09B946
:1004BB00C0F979D01205BF09B9E0F979F01205BF7F
:0404CB0009B9FAF978
:0104CF00220A
:1004D000E4F508F509120585120531E4F508F5097A
:1004E000F5087509C07A007B03E4FDFF1204037A66
:1004F000017B03E4FD7F021204037A027B03E4FD27
:100500007F041204037A037B03E4FD7F06120403D5
:10051000C2A4C2A3AF091205E17F0212056C05094E
:10052000E50970020508C394FFE508940040B68011
:01053000FECC
:030000000205EE08
:0C05EE00787FE4F6D8FD75810D0204D082
:00000001FF
