:030000000208EA09
:10080000E4FFFEFDEF25E0FFC2A2D2A2C2A230A10A
:10081000010F0DBD08EEE4FDEE25E0FEC2A2D2A25E
:10082000C2A230A1010E0DBD08EEEEC4540FFEEFC2
:1008300054F04EFF22E4F508F5091208C9E4FDFF63
:1008400012085AE5099008F693FF600D1208930507
:1008500009E50970EE050880EA22EF70047F8080C8
:1008600010BF01047F908009BF02047F8880027F4F
:1008700098EF2DFF0208AEE4FEC2A2EFC4131313DB
:10088000540124FF92A1EF25E0FFD2A2C2A20EBE26
:1008900008E7228F0A1208DD7FF8120877E50A546C
:1008A000F0FF120877E50AC454F0FF0208778F0AB8
:1008B0001208DD7FF8120877E50A54F0FF12087776
:1008C000E50AC454F0FF0208777F301208AE7F01BA
:1008D0001208AE7F061208AE7F0C0208AE7FFC1233
:1008E0000877120800EF20E7F422787FE4F6D8FDBD
:1008F00075810A020835C4EAC7E1C8CBB2BBBDB2F4
:07090000CEE4B5C2B0A10076
:00000001FF
