:03000000020E7677
:10080000020BB5E86480F8E933E83360110460F066
:10081000ED33EC337009E8FCE9FDEAFEEBFF22045E
:1008200060DED3EB9FEA9EE99DE8C2E78CF0C2F759
:1008300095F0400CE8CCF8E9CDF9EACEFAEBCFFB25
:10084000120B8085D0F05804700320D5B3E80470F3
:10085000075002B2D5020BBF92D5EC0460F7E4CC8E
:10086000C0E0C398F8603B94186008400DD0E0FBEE
:10087000020B97E4FBFAC9FC8028E830E406E4C9DF
:10088000FBE4CAFCE830E305E4C9CACBFCE8540742
:100890006010F8C3E913F9EA13FAEB13FBEC13FC4D
:1008A000D8F130F52FC3E49CFCEF9BFFEE9AFEEDF0
:1008B00099FDD0E0FBEF4E4D4C701222DB03020B92
:1008C000BCEC2CFCEF33FFEE33FEED33FDED30E7F7
:1008D000EB020B97EF2BFFEE3AFEED39FDD0E0FB7C
:1008E00050130BBB0003020BBFED13FDEE13FEEF25
:1008F00013FFEC13FC020B97EC4D6011E8497017E5
:10090000ED33EC3304600DE4FCFFFEFD22E933E837
:10091000330470F8020BB5120B8058046009E4CC64
:1009200024815006285009020BBF284003020BBC4B
:10093000C0E0EB4A7044B98006D0E0FB020BABEF9D
:100940004E701CBD8008EBFFEAFEE9FD80EBE98DEF
:10095000F0A4FEE5F00209E1E9CDF9EAFEEBFFEFD4
:1009600089F0A4FCE5F0CE89F0A42EFFE435F0CDAB
:1009700089F0A42DFEE435F08067EF4E7005BD8050
:10098000D780C3EF8BF0A4ACF0EE8BF0A42CFCE48A
:1009900035F0F8EF8AF0A42CE5F038FCE433CB8D89
:1009A000F0A42CFCE5F03BF8EE8AF0A42CFCE5F07A
:1009B00038F8E433CF89F0A42CFCE5F038CF3400CC
:1009C000CE89F0A42FFFE5F03EFEE433C98DF0A4FC
:1009D0002EFEE5F039CD8AF0A42FFFE5F03EFEE4CF
:1009E0003DFD33D0E0FB50070BBB000F020BBFEC0B
:1009F0002CFCEF33FFEE33FEED33FD020B97020BC1
:100A0000BFEC5D046005E859047003020BB5120BDE
:100A100080580460F6EC4860F2EC7004FDFEFF22A2
:100A2000C860DB2481C85009C39860025006020BDD
:100A3000BC9850CAF582E9294B4A7005AB82020B7B
:100A4000AB75F0007C1A7880C3EF9BEE9AED99406D
:100A50000DC3EF9BFFEE9AFEED99FDE842F0DC231B
:100A6000ACF0D0E0FFD0E0FED0E0FDAB8220E7109C
:100A70001BEB60BAEC2CFCEF33FFEE33FEED33FDE5
:100A8000020B97E803F830E705C0F075F000EF2F90
:100A9000FFEE33FEED33FD40B830E7C280AA74F8B4
:100AA000CC6480CCC86480C8F582046043C3EB9FEB
:100AB000F5F0EA9E42F0E99D42F0E89C45F0603096
:100AC0005018E5825FFFE582F42B5582FB50210A26
:100AD000BA001D09B90019088016E5825BFBE582A2
:100AE000F42F5582FF50090EBE00050DBD00010C0C
:100AF000C3EB9FF5F0EA9E42F0E99D42F0E89C4589
:100B0000F06007CC4820E701B3EC2275F020800E9E
:100B100075F010800575F0087D007E007F0033922F
:100B2000D530D503120BF7EC334010EF33FFEE3323
:100B3000FEED33FDEC33FCD5F0ED22E5F0247EA292
:100B4000D513CC92E7CDCEFF22EDD2E7CD33EC33F7
:100B500092D524814006E4FFFEFDFC22FCE4CFCECA
:100B6000CDCC24E0501174FF80EDC3CC13CCCD1359
:100B7000CDCE13CECF13CF0470F030D5DE020BF7FD
:100B8000E9D2E7C933E833F892D5EDD2E7CD33ECBB
:100B900033FC5002B2D522EC30E7100FBF000C0E30
:100BA000BE00080DBD00040BEB6014A2D5EB13FCD6
:100BB000ED92E7FD2274FFFCFDFEFF22E480F8A227
:100BC000D574FF13FC7D80E480EFBB010CE5822926
:100BD000F582E5833AF583E0225006E92582F8E6BE
:100BE00022BBFE06E92582F8E222E58229F582E5AC
:100BF000833AF583E49322C3E49FFFE49EFEE49DE1
:100C0000FDE49CFC228F18AC18E4120B158F1D8E8E
:100C10001C8D1B8C1AE5187F0070027F018F1FE46A
:100C2000FFFE7D807C3FAB1DAA1CA91BA81A120ADF
:100C30009E401EAF1DAE1CAD1BAC1AE4FBFA792022
:100C40007841120A018F1D8E1C8D1B8C1A051F8086
:100C5000CEE4F51EE51EC3951F5060AF1DAE1CAD62
:100C60001BAC1AE4FBFA792078411208F88F1D8E2C
:100C70001C8D1B8C1A120B498F19E5192430FF7437
:100C800008251EF8A607AF1DAE1CAD1BAC1AC0048C
:100C9000C005C006C007AC19E4120B15A804A905CD
:100CA000AA06AB07D007D006D005D0041208038FE0
:100CB0001D8E1C8D1B8C1A051E80997408251EF82C
:100CC000E4F6FB7A00790822120E66120E04E51291
:100CD0006003020D57120E498F13120E498F141222
:100CE0000E498F15120E498F16120E498F177BFF72
:100CF0007A0D7968120DB4120DDBE5127BFF60509E
:100D00007A0D7976120DB47BFF7A0D7982120DB4CB
:100D1000AF15120C05120DB4120DAEAF16120C0564
:100D2000120DB47BFF7A0D7990120DB47BFF7A0D12
:100D30007993120DB4AF13120C05120DB4120DAE4F
:100D4000AF14120C05120DB47BFF7A0D799F80044D
:100D50007A0D79A2120DB4020E2CB3F5CABCBBAF4A
:100D6000CAA7B0DCA3A10A00B3F5CABCBBAFB3C924
:100D7000B9A6A3A10A00D0A3D1E9B3C9B9A6A3A17A
:100D80000A00B5B1C7B0CEC2B6C8CAC73A002E0075
:100D9000A1E600B5B1C7B0CAAAB6C8CAC73A00250D
:100DA0000A00D0A3D1E9CAA7B0DCA3A10A007BFF47
:100DB0007A0D798E8B188A19891AE4FFFEAB18AA6E
:100DC00019A91A8F828E83120BCA600EF599309979
:100DD000FDC2990FBF00010E80E322E5132514FF29
:100DE000E433FE7C00EF2515FFEC3EFEEF2516FFF9
:100DF000EC3EFEEFB51708ECB506047F0180027FDC
:100E0000008F1222120E2CD2A0C2A0120E94D2A0D9
:100E1000120E8BA2A0E433F51230A0097BFF7A0DED
:100E2000795A020DB430A0FD20A0FD22E4FFFEE4BB
:100E3000FDFC0DBD00010CED646E4C70F50FBF00A4
:100E4000010EBE03EABFE8E722E4FDFC30A0FD127C
:100E50000E82ED25E0FD30A00620A0FD4305010C2B
:100E6000BC08E9AF0522758920758DFD758BFDD213
:100E70008EC29FD29E22787FE4F6D8FD75811F0234
:100E80000CC87F017E0EDEFEDFFA227F017E13DEBC
:0D0E9000FEDFFA227FA17E32DEFEDFFA22B5
:00000001FF
