:06000000020EC7020FD53D
:03000B00020C31B3
:10080000EC4D6011E8497017ED33EC3304600DE4F2
:10081000FCFFFEFD22E933E8330470F8020A5012AF
:100820000A1B58046009E4CC2481500628500902B0
:100830000A5A284003020A57C0E0EB4A7044B980C4
:1008400006D0E0FB020A46EF4E701CBD8008EBFFAD
:10085000EAFEE9FD80EBE98DF0A4FEE5F00208E98F
:10086000E9CDF9EAFEEBFFEF89F0A4FCE5F0CE89D3
:10087000F0A42EFFE435F0CD89F0A42DFEE435F090
:100880008067EF4E7005BD80D780C3EF8BF0A4ACBE
:10089000F0EE8BF0A42CFCE435F0F8EF8AF0A42CF9
:1008A000E5F038FCE433CB8DF0A42CFCE5F03BF80C
:1008B000EE8AF0A42CFCE5F038F8E433CF89F0A4FC
:1008C0002CFCE5F038CF3400CE89F0A42FFFE5F002
:1008D0003EFEE433C98DF0A42EFEE5F039CD8AF05A
:1008E000A42FFFE5F03EFEE43DFD33D0E0FB5007D2
:1008F0000BBB000F020A5AEC2CFCEF33FFEE33FE69
:10090000ED33FD020A32020A5AEC5D046005E85933
:10091000047003020A50120A1B580460F6EC486087
:10092000F2EC7004FDFEFF22C860DB2481C8500990
:10093000C39860025006020A579850CAF582E92906
:100940004B4A7005AB82020A4675F0007C1A78802B
:10095000C3EF9BEE9AED99400DC3EF9BFFEE9AFE1D
:10096000ED99FDE842F0DC23ACF0D0E0FFD0E0FEF2
:10097000D0E0FDAB8220E7101BEB60BAEC2CFCEF63
:1009800033FFEE33FEED33FD020A32E803F830E7C1
:1009900005C0F075F000EF2FFFEE33FEED33FD40A4
:1009A000B830E7C280AA75F020800E75F01080057F
:1009B00075F0087D007E007F003392D530D503129C
:1009C0000AEAEC334010EF33FFEE33FEED33FDEC7B
:1009D00033FCD5F0ED22E5F0247EA2D513CC92E7CE
:1009E000CDCEFF22EDD2E7CD33EC3392D52481403A
:1009F00006E4FFFEFDFC22FCE4CFCECDCC24E0508B
:100A00001174FF80EDC3CC13CCCD13CDCE13CECF5C
:100A100013CF0470F030D5DE020AEAE9D2E7C93319
:100A2000E833F892D5EDD2E7CD33EC33FC5002B287
:100A3000D522EC30E7100FBF000C0EBE00080DBD34
:100A400000040BEB6014A2D5EB13FCED92E7FD2242
:100A500074FFFCFDFEFF22E480F8A2D574FF13FCB6
:100A60007D80E480EFC2D5EC30E709B2D5E4C39DC8
:100A7000FDE49CFCEE30E715B2D5E4C39FFFE49E95
:100A8000FE120B0EC3E49DFDE49CFC8003120B0ED2
:100A900030D507C3E49FFFE49EFE22E88FF0A4CC8C
:100AA0008BF0A42CFCE98EF0A42CFC8AF0EDA42C95
:100AB000FCEA8EF0A4CDA8F08BF0A42DCC3825F064
:100AC000FDE98FF0A42CCD35F0FCEB8EF0A4FEA94F
:100AD000F0EB8FF0A4CFC5F02ECD39FEE43CFCEA5C
:100AE000A42DCE35F0FDE43CFC22C3E49FFFE49E40
:100AF000FEE49DFDE49CFC22EB9FF5F0EA9E42F0B3
:100B0000E99D42F0EC6480C864809845F022BC0006
:100B10000BBE0029EF8DF084FFADF022E4CCF87518
:100B2000F008EF2FFFEE33FEEC33FCEE9DEC984027
:100B300005FCEE9DFE0FD5F0E9E4CEFD22EDF8F5C3
:100B4000F0EE8420D21CFEADF075F008EF2FFFED23
:100B500033FD4007985006D5F0F222C398FD0FD51B
:100B6000F0EA2275F008758200EF2FFFEE33FECD1C
:100B700033CDCC33CCC58233C5829BED9AEC99E55D
:100B80008298400CF582EE9BFEED9AFDEC99FC0FED
:100B9000D5F0D6E4CEFBE4CDFAE4CCF9A88222B8B5
:100BA00000C1B90059BA002DEC8BF084CFCECDFC3A
:100BB000E5F0CBF97818EF2FFFEE33FEED33FDECC7
:100BC00033FCEB33FB10D703994004EB99FB0FD8B0
:100BD000E5E4F9FA227818EF2FFFEE33FEED33FD4E
:100BE000EC33FCC933C910D7059BE99A4007EC9B4D
:100BF000FCE99AF90FD8E0E4C9FAE4CCFB2275F0DD
:100C000010EF2FFFEE33FEED33FDCC33CCC833C8ED
:100C100010D7079BEC9AE899400AED9BFDEC9AFCF3
:100C2000E899F80FD5F0DAE4CDFBE4CCFAE4C8F9A2
:100C300022C0E0C0F0C083C082C0D075D000C00028
:100C4000C001C002C003C004C005C006C007120E28
:100C500004AF11AE10AD0FAC0EAB1FAA1EA91DA89C
:100C60001C120A9BEC1209A6AB25AA24A923A822D0
:100C7000120800C004C005C006C007AF1BAE1AAD05
:100C800019AC18EC1209A6D003D002D001D0001282
:100C900009091209E48F158E148D138C12C374FF89
:100CA0009515FF74FF9514FEE49513FDE49512FC71
:100CB000E4FB7A01F9F8120F538F8CC374FF95157A
:100CC000FF74FF9514FEE49513FDE49512FCE4FB1C
:100CD0007A01F9F8120F53AF038F8AE529640245B0
:100CE00028701FF528F529E517252FCFE516352E95
:100CF000CF2404CF3400FE7C007D04120A658C16DC
:100D00008D17E50D450C70057590FF8008742A2538
:100D100017F8E6F590D007D006D005D004D003D060
:100D200002D001D000D0D0D082D083D0F0D0E03239
:100D3000AF1FAE1EAD1DAC1CEC1209A6AB0BAA0A70
:100D4000A909A808120800E4FBFAF9784012090979
:100D50001209E48F118E108D0F8C0EE4F51BF51A1D
:100D6000F519F518742A2517F8E6F590AF11AE10AD
:100D7000AD0FAC0EAB1FAA1EA91DA81C120A9BEC3E
:100D80001209A6AB25AA24A923A822120800C00490
:100D9000C005C006C007AF1BAE1AAD19AC18EC12E7
:100DA00009A6D003D002D001D0001209091209E42B
:100DB0008F158E148D138C12D2AFD2A9D28CD2A8DB
:100DC000D288758901C374FF9515FF74FF9514FED1
:100DD000E49513FDE49512FCE4FB7A01F9F8120F97
:100DE000538F8CC374FF9515FF74FF9514FEE49523
:100DF00013FDE49512FCE4FB7A01F9F8120F53AFEE
:100E0000038F8A22E50D450C602EC3E511951BF575
:100E10001BE510951AF51AE50F9519F519E50E95CC
:100E200018F518C37401950DF50DE4950CF50C0536
:100E300027E5277002052622E5112401FBE4351081
:100E4000FAE4350FF9E4350EF8AE26AF27EE339508
:100E5000E0FDFCC3120AF87033C3E511951BF51BC6
:100E6000E510951AF51AE50F9519F519E50E95187F
:100E7000F518C3E49521F521E49520F520E4F52645
:100E8000F5270529E52970020528802EC3E511956F
:100E90001BFBE510951AFAE50F9519F9E50E951863
:100EA000F8AE20EE3395E0FDFCEB2521F51BEA3E84
:100EB000F51AE93DF519E83CF518C37401950DF5EF
:100EC0000DE4950CF50C22787FE4F6D8FD75812FA2
:100ED000020F0E020FBCE493A3F8E493A34003F6C1
:100EE0008001F208DFF48029E493A3F85407240C6E
:100EF000C8C333C4540F4420C8834004F45680014F
:100F000046F6DFE4800B0102040810204080900FB9
:100F100097E47E019360BCA3FF543F30E509541F62
:100F2000FEE493A360010ECF54C025E060A840B852
:100F3000E493A3FAE493A3F8E493A3C8C582C8CAD0
:100F4000C583CAF0A3C8C582C8CAC583CADFE9DEA3
:100F5000E780BEC2D5E830E70FB2D5E4C39BFBE41F
:100F60009AFAE499F9E498F8EC30E717B2D5120F41
:100F700089120B9FE4C39BFBE49AFAE499F9E49885
:100F8000F88003120B9F30D50DE4C39FFFE49EFE53
:100F9000E49DFDE49CFC2204223591A2B4042AFEC7
:100FA000FDFBF7022E0001021600000220000102E4
:100FB00026000002280000020C000100E4751F3228
:100FC000F51EF51DF51CF50BF50A75092075084190
:100FD000120D3080FEC0E0C0D0C3E4952FF52FE4A1
:090FE000952EF52ED0D0D0E032A0
:00000001FF
