:03000000020800F3
:030023000208C010
:10080000787FE4F6D8FD7581090208470208A7E45D
:1008100093A3F8E493A34003F68001F208DFF48089
:1008200029E493A3F85407240CC8C333C4540F44D9
:1008300020C8834004F456800146F6DFE4800B01B3
:10084000020408102040809008C9E47E019360BC37
:10085000A3FF543F30E509541FFEE493A360010E4B
:10086000CF54C025E060A840B8E493A3FAE493A372
:10087000F8E493A3C8C582C8CAC583CAF0A3C8C593
:1008800082C8CAC583CADFE9DEE780BE75892075E4
:100890008DFD758BFDD28ED29CD29FC29EC29DE4EF
:1008A000F587D2AFD2AC2212088CE508B401FBC2A6
:1008B000AC8509993099FDC299D2ACE4F50880EA7B
:0D08C000C2988599097508013201080000F1
:00000001FF
