:03000000020FA745
:10080000120F90120FC47D217F8C120E3A7D017F52
:1008100088120E3A7D217F86120E3A7D037F8A125E
:100820000E3A7D907F84120E3A7D507F82120E3AEE
:100830007D317F80120E3A7F8D120E02AD077F8DC3
:10084000120F0EEF24D0FFE43407FE120B29120E14
:10085000ECAE077BFF7A0D79C1120EF28F3A8E391A
:100860007536FF75370D7538C1120BFE7B007A00A7
:10087000791EE4F538F539FDFC120CB17F89120EB2
:1008800002AD077F89120B24120EECAE077BFF7AB4
:100890000D79C4120EF28F3A8E397536FF75370D09
:1008A0007538C4120BFE7B007A00791E753800750E
:1008B0003904E4FDFC120CB17F87120E02AD077FF4
:1008C00087120B24120EECAE077BFF7A0D79C7124C
:1008D0000EF28F3A8E397536FF75370D7538C7129F
:1008E0000BFE7B007A00791E753800753906E4FD31
:1008F000FC120CB17F85120E028F1DE51DC413136F
:100900001354016020E51DC41354077BFF30E0063B
:100910007A0D79CA80047A0D79CDE4F538F5397D00
:1009200001FC120CB17F8B120E028F1DE51D14B459
:100930000700506690094275F003A4C58325F0C5F1
:10094000837302095702095F02096702096F0209EE
:100950007702097F0209877BFF7A0D79D0802E7B91
:10096000FF7A0D79D780267BFF7A0D79DE801E7B9A
:10097000FF7A0D79E480167BFF7A0D79EB800E7B90
:10098000FF7A0D79F280067BFF7A0D79F9753800D0
:100990007539037D017C00120CB17F85120E02AD0A
:1009A000077F85120B24120EECAE077BFF7A0E79BF
:1009B00000120EF28F3A8E397536FF75370E753884
:1009C00000120BFE7F83120E02AD077F83120F0E03
:1009D0007E007B007A007908120B2F120EECAE0716
:1009E0007B007A007908120EF28F3A8E3975360044
:1009F000753700753808120BFE7B007A00791E757A
:100A000038007539037D027C00120CB17F81120E13
:100A1000028F1DAD1D7F81120B247B007A00791E91
:100A20007538007539077D037C00120CB17FE87EB4
:100A300003120F707F81120E02EF651D6003020822
:100A40003780F1BB010689828A83E0225002E722C7
:100A5000BBFE02E32289828A83E49322BB010CE578
:100A60008229F582E5833AF583E0225006E9258262
:100A7000F8E622BBFE06E92582F8E222E58229F5A6
:100A800082E5833AF583E49322BB010689828A8357
:100A9000F0225002F722BBFE01F322F8BB010DE564
:100AA0008229F582E5833AF583E8F0225006E925AC
:100AB00082C8F622BBFE05E92582C8F222EF8DF03E
:100AC000A4A8F0CF8CF0A428CE8DF0A42EFE22BCDA
:100AD000000BBE0029EF8DF084FFADF022E4CCF8CE
:100AE00075F008EF2FFFEE33FEEC33FCEE9DEC9833
:100AF0004005FCEE9DFE0FD5F0E9E4CEFD22EDF8B9
:100B0000F5F0EE8420D21CFEADF075F008EF2FFF5B
:100B1000ED33FD4007985006D5F0F222C398FD0F43
:100B2000D5F0EA22120F0E7E007B007A00791E8E2D
:100B3000338F348B358A368937C3E534940AE533ED
:100B40009400500D7538007539017430120A89808F
:100B500005E4F538F539E4F53AF53BE5344533700D
:100B600005FE7F0180047E007F008E3C8F3DE534D2
:100B700045336037AE33AF347C007D0A120ACFAA0A
:100B800004AB05AE3AAF3B7C007D0A120ABDEF2BE9
:100B9000F53BEE3AF53AAE33AF34120ACF8E338FCF
:100BA00034053DE53D70C7053C80C3E53D153DAED0
:100BB0003C7002153C4E6036AE3AAF3B7C007D0A7D
:100BC000120ACFED2430AB35AA36A9378539828594
:100BD0003883120A9BAE3AAF3B7C007D0A120ACFE3
:100BE0008E3A8F3B0539E53970C1053880BDAB358C
:100BF000AA36A937853982853883E4020A9B753B7A
:100C000000753C00753D1E7B007A00791E8B338A8F
:100C1000348935E4F553E553C39539501BAB33AAFA
:100C200034A935855382758300120A5CFF743E2512
:100C300053F8A607055380DEAD397C00ED253AFF59
:100C4000EC33FEC3E5539FEE6480F8748098502027
:100C5000C3E5539DFFE49CAB36AA37A9388F82F5D4
:100C600083120A5CFF743E2553F8A607055380C81B
:100C7000E4F553E539253AFFE433FEC3E5539FEE2F
:100C80006480F87480985019743E2553F8E6AB3BA5
:100C9000AA3CA93D855382758300120A9B055380A7
:100CA000D2AB3BAA3CA93D855382758300E4020A7E
:100CB0009B8B338A3489358C368D37AF37AD3912FB
:100CC0000ECAE536702DE5371460121460171460F3
:100CD0001C2403701E75360075378080167536002B
:100CE000753790800E75360075378880067536002A
:100CF000753798E5392537F537E5383536F536E473
:100D0000F53AAB33AA34A935853A82758300120AC5
:100D10005CFF6049120EAEE53A30E03D0537E5373D
:100D200070020536E5367029E5372471601824F71E
:100D3000600C2410701B753600753790800E753668
:100D4000007537888006753600753798AF37120FF3
:100D500034E53764A045366004053A80A5227F3427
:100D6000120F34E4F533E5332480FF120F347F8013
:100D7000120F34E4F534E4FF120EAE0534E534C34B
:100D8000941040F20533E533C3942040D9E4F533A1
:100D9000E5332480FF120F347F88120F34E4F534DA
:100DA000E4FF120EAE0534E534C3941040F205336F
:100DB000E533C3942040D97F36120F347F30020FC1
:100DC00034C4EA00D4C200C8D500504D00414D00E3
:100DD000D0C7C6DAD2BB00D0C7C6DAB6FE00D0C7CD
:100DE000C6DAC800D0C7C6DACBC400D0C7C6DACED0
:100DF000E500D0C7C6DAC1F900D0C7C6DAC8D50049
:100E00003A00E4FEC290C29100D290FDC29100EF80
:100E100013929200D29100EFC313FF0DBD08EDD2E3
:100E200092E4FDEEC313FED29100C2910030920312
:100E30004306800DBD08ECAF0622C290C29100D2DD
:100E400090E4FEC29100EF13929200D29100EFC3A2
:100E500013FF0EBE08EDE4FEC29100ED1392920066
:100E6000D29100EDC313FD0EBE08EDC2900022E446
:100E7000FFFEFDEF25E0FFC2A5D2A5C2A530A60169
:100E80000F0DBD08EEE4FDEE25E0FEC2A5D2A5C221
:100E9000A530A6010E0DBD08EEEEC4540FFEEF54B2
:100EA000F04EFF22AB00AA00A900120A43FF8F3BBD
:100EB000D2A7120FBC7FFA120F54E53B54F0FF1279
:100EC0000F54E53B120F50C2A722EF14600E1460BE
:100ED0000F1460102403700E7F80800A7F908006BC
:100EE0007F8880027F98EF2DFF020F347B007A000D
:100EF000791E8B338A348935E4FFAB33AA34A935A4
:100F00008F82758300120A5C60030F80ED22BF851B
:100F10000FEDC413131354016006EDC45401800493
:100F2000EDC4540F75F00AA4FFED540F2FFF22E516
:100F3000002480FF8F3BD2A7120FBC7FF8120F5402
:100F4000E53B54F0FF120F54E53B120F50C2A722AD
:100F5000C454F0FFE4FEC2A5EFC4131313540124DC
:100F6000FF92A6EF25E0FFD2A5C2A50EBE08E7229C
:100F7000E4FDFCC3ED9FEC9E5015E4FBFA0BBB00B7
:100F8000010AEB646E4A70F50DBD00010C80E4228D
:100F9000120D5E7F30120F347F0C120F347F01125E
:100FA0000F347F06020F34787FE4F6D8FD75815345
:100FB0000208007FFC120F54120E6F22120FB3EFC3
:0B0FC00020E7F9227D807F80020E3ABE
:00000001FF
