:03000000020FB537
:10080000120E64120E8C7D217F8C120D0E7D017FE5
:1008100088120D0E7D227F86120D0E7D047F8A12B6
:100820000D0E7DA77F84120D0E7D027F82120D0EAC
:10083000E4FD7F80120D0E7F8D120CD6AD077F8DEB
:10084000120DE2EF24D0FFE43407FE120A3E120D2F
:10085000C0AE077BFF7A0F7974120DC68F3A8E39BE
:100860007536FF75370F753874120B137B007A00DD
:10087000791EE4F538F539FDFC120BC67F89120CA0
:10088000D6AD077F89120A39120DC0AE077BFF7AF9
:100890000F7977120DC68F3A8E397536FF75370F7F
:1008A000753877120B137B007A00791E7538007546
:1008B0003904E4FDFC120BC67F87120CD6AD077F0E
:1008C00087120A39120DC0AE077BFF7A0F797A12B0
:1008D0000DC68F3A8E397536FF75370F75387A1217
:1008E0000B137B007A00791E753800753906E4FD1C
:1008F000FC120BC67F85120CD68F1DE51DC4131389
:100900001354016022E51DC41354077BFF30E00639
:100910007A0F797D80047A0F7980753800753901F6
:100920007D027C00120BC67F8B120CD68F1DE51D3D
:1009300014B40700505B90094025E0500205837312
:10094000214E2156215E2166216E2176217E7BFF7C
:100950007A0F7983802E7BFF7A0F798A80267BFF3E
:100960007A0F7991801E7BFF7A0F799780167BFF33
:100970007A0F799E800E7BFF7A0F79A580067BFF28
:100980007A0F79AC7538007539037D017C00120B44
:10099000C67F85120CD6AD077F85120A39120DC0AD
:1009A000AE077BFF7A0F79B3120DC68F3A8E397579
:1009B00036FF75370F7538B3120B137F83120CD6C1
:1009C000AD077F83120DE27E007B007A007908126A
:1009D0000A44120DC0AE077B007A007908120DC6DA
:1009E0008F3A8E39753600753700753808120B133B
:1009F0007B007A00791E7538007539037D027C0012
:100A0000120BC67F81120CD68F1DAD1D7F81120A7D
:100A1000397B007A00791E7538007539077D037CB3
:100A200000120BC67F847E03120E447F81120CD607
:100A3000EF651D6002013780F2120DE27E007B003F
:100A40007A00791E8E338F348B358A368937C3E529
:100A500034940AE5339400500D75380075390174EB
:100A600030120ED98005E4F538F539E4F53AF53B56
:100A7000E53445337005FE7F0180047E007F008EE3
:100A80003C8F3DE53445336037AE33AF347C007D79
:100A90000A120F1FAA04AB05AE3AAF3B7C007D0AD9
:100AA000120F0DEF2BF53BEE3AF53AAE33AF3412A1
:100AB0000F1F8E338F34053DE53D70C7053C80C365
:100AC000E53D153DAE3C7002153C4E6036AE3AAF8A
:100AD0003B7C007D0A120F1FED2430AB35AA36A9EE
:100AE00037853982853883120EEBAE3AAF3B7C00F6
:100AF0007D0A120F1F8E3A8F3B0539E53970C1050B
:100B00003880BDAB35AA36A937853982853883E46C
:100B1000020EEB753B00753C00753D1E7B007A00B4
:100B2000791E8B338A348935E4F553E553C39539FF
:100B3000501BAB33AA34A935855382758300120E3E
:100B4000ACFF743E2553F8A607055380DEAD397C13
:100B500000ED253AFFEC33FEC3E5539FEE6480F8C9
:100B60007480985020C3E5539DFFE49CAB36AA37B0
:100B7000A9388F82F583120EACFF743E2553F8A678
:100B800007055380C8E4F553E539253AFFE433FE01
:100B9000C3E5539FEE6480F87480985019743E2525
:100BA00053F8E6AB3BAA3CA93D85538275830012FE
:100BB0000EEB055380D2AB3BAA3CA93D8553827511
:100BC0008300E4020EEB8B338A3489358C368D3703
:100BD000AF37AD39120D9EE536702DE53714601232
:100BE00014601714601C2403701E7536007537805E
:100BF0008016753600753790800E7536007537880B
:100C00008006753600753798E5392537F537E538AC
:100C10003536F536E4F53AAB33AA34A935853A8250
:100C2000758300120EACFF6049120D82E53A30E088
:100C30003D0537E53770020536E5367029E537247E
:100C400071601824F7600C2410701B75360075371E
:100C500090800E75360075378880067536007537BA
:100C600098AF37120E08E53764A045366004053AA0
:100C700080A5227F34120E08E4F533E5332480FF8B
:100C8000120E087F80120E08E4F534E4FF120D8284
:100C90000534E534C3941040F20533E533C39420A2
:100CA00040D9E4F533E5332480FF120E087F881223
:100CB0000E08E4F534E4FF120D820534E534C394E4
:100CC0001040F20533E533C3942040D97F36120E2D
:100CD000087F30020E08E4FEC290C29100D290FD5F
:100CE000C29100EF13929200D29100EFC313FF0D57
:100CF000BD08EDD292E4FDEEC313FED29100C29185
:100D0000003092034306800DBD08ECAF0622C2906E
:100D1000C29100D290E4FEC29100EF13929200D2F1
:100D20009100EFC313FF0EBE08EDE4FEC29100ED8B
:100D300013929200D29100EDC313FD0EBE08EDC2D6
:100D4000900022E4FFFEFDEF25E0FFC2A5D2A5C280
:100D5000A530A6010F0DBD08EEE4FDEE25E0FEC2B4
:100D6000A5D2A5C2A530A6010E0DBD08EEEEC45455
:100D70000FFEEF54F04EFF22AB00AA00A900120EA6
:100D800093FF8F3BD2A7120E847FFA120E28E53B09
:100D900054F0FF120E28E53B120E24C2A722EF14D6
:100DA000600E14600F1460102403700E7F80800AA0
:100DB0007F9080067F8880027F98EF2DFF020E08CB
:100DC0007B007A00791E8B338A348935E4FFAB339C
:100DD000AA34A9358F82758300120EAC60030F8090
:100DE000ED22BF850FEDC413131354016006EDC44B
:100DF00054018004EDC4540F75F00AA4FFED540FA4
:100E00002FFF22E5002480FF8F3BD2A7120E847FA4
:100E1000F8120E28E53B54F0FF120E28E53B120EA7
:100E200024C2A722C454F0FFE4FEC2A5EFC41313EA
:100E300013540124FF92A6EF25E0FFD2A5C2A50E10
:100E4000BE08E722E4FDFCC3ED9FEC9E5015E4FBD9
:100E5000FA0BBB00010AEB646E4A70F50DBD000190
:100E60000C80E422120C737F30120E087F0C120EDD
:100E7000087F01120E087F06020E087FFC120E2862
:100E8000120D4322120E7BEF20E7F9227D807F8036
:100E9000020D0EBB010689828A83E0225002E722FE
:100EA000BBFE02E32289828A83E49322BB010CE524
:100EB0008229F582E5833AF583E0225006E925820E
:100EC000F8E622BBFE06E92582F8E222E58229F552
:100ED00082E5833AF583E49322BB010689828A8303
:100EE000F0225002F722BBFE01F322F8BB010DE510
:100EF0008229F582E5833AF583E8F0225006E92558
:100F000082C8F622BBFE05E92582C8F222EF8DF0E9
:100F1000A4A8F0CF8CF0A428CE8DF0A42EFE22BC85
:100F2000000BBE0029EF8DF084FFADF022E4CCF879
:100F300075F008EF2FFFEE33FEEC33FCEE9DEC98DE
:100F40004005FCEE9DFE0FD5F0E9E4CEFD22EDF864
:100F5000F5F0EE8420D21CFEADF075F008EF2FFF07
:100F6000ED33FD4007985006D5F0F222C398FD0FEF
:100F7000D5F0EA22C4EA00D4C200C8D500504D0022
:100F8000414D00D0C7C6DAD2BB00D0C7C6DAB6FE24
:100F900000D0C7C6DAC800D0C7C6DACBC400D0C7F5
:100FA000C6DACEE500D0C7C6DAC1F900D0C7C6DAC6
:100FB000C8D5003A00787FE4F6D8FD758153020861
:010FC0000030
:00000001FF
