:100000000203B38B0A8A0B890C8C0D8D0EAF0EADDB
:1000100010120291E50D702DE50E14601214601798
:1000200014601C2403701E750D00750E80801675FB
:100030000D00750E90800E750D00750E888006758A
:100040000D00750E98E510250EF50EE50F350DF532
:100050000DE4F511AB0AAA0BA90C8511827583007A
:100060001200C9FF6049120250E51130E03D050E53
:10007000E50E7002050DE50D7029E50E247160187E
:1000800024F7600C2410701B750D00750E90800E07
:10009000750D00750E888006750D00750E98AF0EF3
:1000A0001202B8E50E64A0450D6004051180A5227A
:1000B000BB010689828A83E0225002E722BBFE024E
:1000C000E32289828A83E49322BB010CE58229F52D
:1000D00082E5833AF583E0225006E92582F8E6229C
:1000E000BBFE06E92582F8E222E58229F582E58356
:1000F0003AF583E49322F8BB010DE58229F582E508
:10010000833AF583E8F0225006E92582C8F622BB3F
:10011000FE05E92582C8F2227F341202B8E4F50810
:10012000E5082480FF1202B87F801202B8E4F509C6
:10013000E4FF1202500509E509C3941040F20508D6
:10014000E508C3942040D9E4F508E5082480FF12AF
:1001500002B87F881202B8E4F509E4FF12025005E4
:1001600009E509C3941040F20508E508C39420404E
:10017000D97F361202B87F300202B81203961203FA
:10018000681203147B61E4FD7FA012034E1203A6E4
:10019000E4FD7FA01201F18F13E4F514FB7A0079DE
:1001A00013F50FF510FDFC1200037B007A007913A4
:1001B00012021F7FE87E031202F480EEE4FFFEFDD0
:1001C000EF25E0FFC2A5D2A5C2A530A6010F0DBD47
:1001D00008EEE4FDEE25E0FEC2A5D2A5C2A530A63C
:1001E000010E0DBD08EEEEC4540FFEEF54F04EFFAD
:1001F000228F088D091203BFAF0812037F1202720B
:10020000AF0912037F1202721203BFE50804FF1246
:10021000037F1202721203321203D51203CA228B19
:10022000088A09890AE4FFFEAB08AA09A90A8F8295
:100230008E831200C9600EF5993099FDC2990FBFE7
:1002400000010E80E322AB00AA00A9001200B0FF5B
:100250008F12D2A71203F47FFA1202D8E51254F0DB
:10026000FF1202D8E5121202D4C2A7221203BF1253
:10027000037FC29300D293003094157BFF7A0379F9
:10028000E0750F007510027D017C00120003C200B2
:1002900022EF14600E14600F1460102403700E7FA0
:1002A00080800A7F9080067F8880027F98EF2DFFF4
:1002B0000202B8E5002480FF8F12D2A71203F47F58
:1002C000F81202D8E51254F0FF1202D8E512120219
:1002D000D4C2A722C454F0FFE4FEC2A5EFC4131396
:1002E00013540124FF92A6EF25E0FFD2A5C2A50E6C
:1002F000BE08E722E4FDFCC3ED9FEC9E5015E4FB35
:10030000FA0BBB00010AEB646E4A70F50DBD0001EB
:100310000C80E422D2001203BFC293D294E4FFC245
:100320009300D29300C293000FBF09F31203BF02E0
:1003300003CAE4FFFEC293D29400EF25E0FFD293FC
:1003400000A294E4334207C2930EBE08E8228D084F
:100350008B0912026CAF0812037F120272AF0912EE
:10036000037F1202720203CA1201187F301202B810
:100370007F0C1202B87F011202B87F060202B8E4B5
:10038000FEC293EF33929400D29300C293EF25E024
:10039000FF0EBE08EC22758920758DFD758BFDD290
:1003A0008EC29FD29E227F017EC87D0ADDFEDEFACC
:1003B000DFF622787FE4F6D8FD75812002017BC24A
:1003C00093D294D29300C2940022C293C294D29347
:1003D00000D2940022C293D29400D29300C29322FE
:1003E000D0B4C8EBCAA7B0DCA3A1007FFC1202D82E
:0C03F0001201BC221203EBEF20E7F922FF
:00000001FF
