:1000000002086312084C1208807D217F8C1206DEE4
:100010007D017F881206DE7D237F861206DE7D0647
:100020007F8A1206DE7D107F841206DE7D077F82C6
:100030001206DEE4FD7F801206DE7BFF7A067986FB
:10004000E4FF12057A7F8D1206A6AD077F8D120799
:10005000B2EF24D0FFE43407FE12033B120790AE48
:10006000077BFF7A0679461207968F3A8E397536E6
:10007000FF7537067538461204C77B007A00791E73
:10008000E4F538F539FDFC12041A7F891206A6AD95
:10009000077F89120336120790AE077BFF7A067935
:1000A000491207968F3A8E397536FF7537067538BF
:1000B000491204C77B007A00791E7538007539042F
:1000C000E4FDFC12041A7F871206A6AD077F871293
:1000D0000336120790AE077BFF7A06794C1207961B
:1000E0008F3A8E397536FF75370675384C1204C74E
:1000F0007B007A00791E753800753906E4FDFC1224
:10010000041A7F851206A68F1DE51DC41313135410
:10011000016022E51DC41354077BFF30E0067A0618
:10012000794F80047A0679527538007539017D025D
:100130007C0012041A7F8B1206A68F1DE51D14B4D5
:100140000700506890015275F003A4C58325F0C5DF
:10015000837302016702016F02017702018B0201C2
:100160009302019B0201A37BFF7A067955803A7BBB
:10017000FF7A06795C80327BFF7A0679631204107D
:100180007B057D01E4FF12083480217BFF7A06792C
:100190006880167BFF7A06796F800E7BFF7A06797E
:1001A0007680067BFF7A06797D1204107F85120621
:1001B000A6AD077F85120336120790AE077BFF7A44
:1001C0000679841207968F3A8E397536FF75370691
:1001D0007538841204C77F831206A6AD077F831289
:1001E00007B27E007B007A00790812034112079063
:1001F000AE077B007A0079081207968F3A8E397520
:1002000036007537007538081204C77B007A00790C
:100210001E7538007539037D027C0012041A7F8137
:100220001206A68F1DAD1D7F811203367B007A005A
:10023000791E7538007539077D037C0012041A7F1A
:10024000847E031208147F811206A6EF651D6003E9
:1002500002004580F1BB010689828A83E0225002B8
:10026000E722BBFE02E32289828A83E49322BB0158
:100270000CE58229F582E5833AF583E0225006E910
:100280002582F8E622BBFE06E92582F8E222E58215
:1002900029F582E5833AF583E49322BB010689823E
:1002A0008A83F0225002F722BBFE01F322F8BB0141
:1002B0000DE58229F582E5833AF583E8F0225006C0
:1002C000E92582C8F622BBFE05E92582C8F222EFA5
:1002D0008DF0A4A8F0CF8CF0A428CE8DF0A42EFE33
:1002E00022BC000BBE0029EF8DF084FFADF022E4AC
:1002F000CCF875F008EF2FFFEE33FEEC33FCEE9DEB
:10030000EC984005FCEE9DFE0FD5F0E9E4CEFD2211
:10031000EDF8F5F0EE8420D21CFEADF075F008EF9C
:100320002FFFED33FD4007985006D5F0F222C39819
:10033000FD0FD5F0EA221207B27E007B007A007929
:100340001E8E338F348B358A368937C3E534940A51
:10035000E5339400500D7538007539017430120280
:100360009B8005E4F538F539E4F53AF53BE534458D
:10037000337005FE7F0180047E007F008E3C8F3D40
:10038000E53445336037AE33AF347C007D0A12026A
:10039000E1AA04AB05AE3AAF3B7C007D0A1202CF66
:1003A000EF2BF53BEE3AF53AAE33AF341202E18E65
:1003B000338F34053DE53D70C7053C80C3E53D15F1
:1003C0003DAE3C7002153C4E6036AE3AAF3B7C0011
:1003D0007D0A1202E1ED2430AB35AA36A937853902
:1003E000828538831202ADAE3AAF3B7C007D0A12A3
:1003F00002E18E3A8F3B0539E53970C1053880BD81
:10040000AB35AA36A937853982853883E40202AD37
:100410007538007539037D017C008B338A3489354A
:100420008C368D37AF37AD3912076EE536702DE556
:100430003714601214601714601C2403701E753684
:10044000007537808016753600753790800E7536CA
:10045000007537888006753600753798E539253779
:10046000F537E5383536F536E4F53AAB33AA34A935
:1004700035853A8275830012026EFF604912075279
:10048000E53A30E03D0537E53770020536E5367070
:1004900029E5372471601824F7600C2410701B754F
:1004A0003600753790800E75360075378880067572
:1004B0003600753798AF371207D8E53764A0453650
:1004C0006004053A80A522753B00753C00753D1E11
:1004D0007B007A00791E8B338A348935E4F553E545
:1004E00053C39539501BAB33AA34A9358553827554
:1004F000830012026EFF743E2553F8A60705538051
:10050000DEAD397C00ED253AFFEC33FEC3E5539FA9
:10051000EE6480F87480985020C3E5539DFFE49CFE
:10052000AB36AA37A9388F82F58312026EFF743E6C
:100530002553F8A607055380C8E4F553E539253A55
:10054000FFE433FEC3E5539FEE6480F87480985057
:1005500019743E2553F8E6AB3BAA3CA93D8553826E
:100560007583001202AD055380D2AB3BAA3CA93D76
:10057000855382758300E40202AD8F338B348A3554
:1005800089367F341207D87F021207D87F301207CE
:10059000D8E533C454F04440F538E4F537E5382560
:1005A00037FF1207D8AB34AA35A93675F002E53704
:1005B000A4F58285F08312026EFF120752AB34AAB3
:1005C00035A93675F002E537A42401F582E435F04B
:1005D000F58312026EFF1207520537E537C39410F8
:1005E00040BB227F341207D8E4F533E5332480FF83
:1005F0001207D87F801207D8E4F534E4FF120752BF
:100600000534E534C3941040F20533E533C3942038
:1006100040D9E4F533E5332480FF1207D87F8812F0
:1006200007D8E4F534E4FF1207520534E534C394E7
:100630001040F20533E533C3942040D97F361207CA
:10064000D87F300207D8C4EA00D4C200C8D5005011
:100650004D00414D00D0C7C6DAD2BB00D0C7C6DAC4
:10066000B6FE00D0C7C6DA00D0C7C6DACBC400D009
:10067000C7C6DACEE500D0C7C6DAC1F900D0C7C612
:10068000DAC8D5003A00000000007FFC000000003E
:10069000000000003FF80000000000000000000023
:1006A000FFFE00000000E4FEC290C29100D290FD67
:1006B000C29100EF13929200D29100EFC313FF0D8D
:1006C000BD08EDD292E4FDEEC313FED29100C291BB
:1006D000003092034306800DBD08ECAF0622C290A5
:1006E000C29100D290E4FEC29100EF13929200D228
:1006F0009100EFC313FF0EBE08EDE4FEC29100EDC2
:1007000013929200D29100EDC313FD0EBE08EDC20C
:10071000900022E4FFFEFDEF25E0FFC2A5D2A5C2B6
:10072000A530A6010F0DBD08EEE4FDEE25E0FEC2EA
:10073000A5D2A5C2A530A6010E0DBD08EEEEC4548B
:100740000FFEEF54F04EFF22AB00AA00A9001202E8
:1007500055FF8F3BD2A71208787FFA1207F8E53BC6
:1007600054F0FF1207F8E53B1207F4C2A722EF147A
:10077000600E14600F1460102403700E7F80800AD6
:100780007F9080067F8880027F98EF2DFF0207D838
:100790007B007A00791E8B338A348935E4FFAB33D2
:1007A000AA34A9358F8275830012026E60030F8010
:1007B000ED22BF850FEDC413131354016006EDC481
:1007C00054018004EDC4540F75F00AA4FFED540FDA
:1007D0002FFF22E5002480FF8F3BD2A71208787FED
:1007E000F81207F8E53B54F0FF1207F8E53B120753
:1007F000F4C2A722C454F0FFE4FEC2A5EFC4131351
:1008000013540124FF92A6EF25E0FFD2A5C2A50E46
:10081000BE08E722E4FDFCC3ED9FEC9E5015E4FB0F
:10082000FA0BBB00010AEB646E4A70F50DBD0001C6
:100830000C80E4228F33AE03AF05AD0612076EE4E1
:10084000FF120752E53325E0FF0207521205E37F4E
:10085000301207D87F0C1207D87F011207D87F0605
:100860000207D8787FE4F6D8FD7581530200037F34
:10087000FC1207F81207132212086FEF20E7F92283
:070880007D807F800206DE8F
:00000001FF
