:03000000020901F1
:100800007D7A7F341208757D7A7F34120875E4F59D
:100810000812086E7D7A7F80120875E4F5097D73F1
:10082000E4FF1208750509E509C3941040F00508B6
:10083000E508C3942040DAE4F50812086E7D7A7F5B
:1008400088120875E4F5097D73E4FF12087505093F
:10085000E509C3941040F00508E508C3942040DA88
:100860007D7A7F361208757D7A7F30020875E5083B
:100870002480FF7D7A8F0AA9051208D4B97A03C3B0
:100880008001D392B5C2B6C2B4850A807F057E00CE
:1008900012089BD2B412089BC2B422E4FDFCC3ED43
:1008A0009FEC9E5015E4FBFA0BBB00010AEB646E53
:1008B0004A70F50DBD00010C80E422BB010689825F
:1008C0008A83E0225002E722BBFE02E32289828A69
:1008D00083E49322E4F580D2B6C2B5D2B47F05FE9C
:1008E00012089BE58020E7FBC2B422D2B77D7A7F55
:1008F000301208757D7A7F0C12087512090D0208F6
:1009000000787FE4F6D8FD75810A0209147D7A7FAC
:07091000010208750208EB6B
:00000001FF
